:100000000C94A2000C94BF000C94BF000C94BF0091
:100010000C94BF000C94BF000C94BF000C94BF0064
:100020000C94BF000C94BF000C94BF000C94BF0054
:100030000C94BF000C94BF000C94BF000C94BF0044
:100040000C94BF000C94BF000C94BF000C94BF0034
:100050000C94BF000C94BF000C94BF000C94BF0024
:100060000C94BF000C94BF000A0A0D39444F46207F
:10007000494D55204669726D776172652076313938
:10008000200A0D3D3D3D3D3D3D3D3D3D3D3D3D3D20
:100090003D3D3D3D3D3D3D3D3D3D3D3D3D000A0D30
:1000A0005B315D416363656C65726F6D657465722C
:1000B0003A204144584C333435200A0D005B325D00
:1000C0004D61676E65746F6D657465723A20484D59
:1000D0004335383433200A0D005B335D4779726F46
:1000E00073636F70653A204C505235333020616E27
:1000F00064204C59353330200A0D005B345D526169
:1001000077204F75747075740A0D005B355D436818
:10011000616E6765204261756420526174653A20A2
:10012000005B4374726C2B7A5D546F67676C65205B
:100130004175746F72756E0A0D005B3F5D48656CAA
:10014000700A0D0011241FBECFEFD8E0DEBFCDBF77
:1001500015E0A0E0B1E0E2EBF8E202C005900D92FC
:10016000AE38B107D9F715E0AEE8B5E001C01D9291
:10017000AE39B107E1F70E9405110C9457140C94A5
:1001800000003C9A84EA8093BC0020E030E002C08A
:100190002F5F3F4F8091BC0087FD03C02A3531059A
:1001A000B9F73C9A86EA8093BB0084E88093BC0050
:1001B00020E030E002C02F5F3F4F8091BC0087FD00
:1001C00003C02A353105B9F73C9A8DE28093BB0014
:1001D00084E88093BC0020E030E002C02F5F3F4FF6
:1001E0008091BC0087FD03C02A353105B9F73C9AE0
:1001F00088E08093BB0084E88093BC0020E030E07E
:1002000002C02F5F3F4F8091BC0087FD03C02A359D
:100210003105B9F784E98093BC003C9A84EA809365
:10022000BC0020E030E002C02F5F3F4F8091BC0057
:1002300087FD03C02A353105B9F73C9A86EA8093D9
:10024000BB0084E88093BC0020E030E002C02F5F58
:100250003F4F8091BC0087FD03C02A353105B9F7B7
:100260003C9A81E38093BB0084E88093BC0020E04B
:1002700030E002C02F5F3F4F8091BC0087FD03C07C
:100280002A353105B9F73C9A88E08093BB0084E8B1
:100290008093BC0020E030E002C02F5F3F4F809190
:1002A000BC0087FD03C02A353105B9F784E9809386
:1002B000BC000895F999FECF82E090E092BD81BD27
:1002C000F89A80B5833609F0D4C0F999FECF83E05F
:1002D00090E092BD81BDF89A80B5843001F580EC44
:1002E00092E1A0E0B0E080938E0590938F05A093FB
:1002F0009005B09391051092C5008FEC8093C400D7
:1003000082E08093C00088E18093C10086E0809302
:10031000C20080E895E090939B0580939A05F99937
:10032000FECF84E090E092BD81BDF89A80B589301F
:1003300001F580E895E2A0E0B0E080938E0590930F
:100340008F05A0939005B09391051092C50087E6A4
:100350008093C40082E08093C00088E18093C10054
:1003600086E08093C20080E895E090939B0580939F
:100370009A05F999FECF85E090E092BD81BDF89A8B
:1003800080B5833101F580E09BE4A0E0B0E080938C
:100390008E0590938F05A0939005B09391051092D0
:1003A000C50083E38093C40082E08093C00088E1AD
:1003B0008093C10086E08093C20080E895E090932E
:1003C0009B0580939A05F999FECF86E090E092BD57
:1003D00081BDF89A80B5863201F580E096E9A0E00B
:1003E000B0E080938E0590938F05A0939005B09315
:1003F00091051092C50089E18093C40082E080934A
:10040000C00088E18093C10086E08093C20080E84C
:1004100095E090939B0580939A05F999FECF87E02C
:1004200090E092BD81BDF89A80B5893309F041C052
:1004300080E091EEA0E0B0E080938E0590938F0570
:10044000A0939005B09391051092C50080E1809330
:10045000C40082E08093C00088E18093C10086E000
:100460008093C20080E895E090939B0580939A0565
:1004700008951092C50080E18093C40082E08093CB
:10048000C00088E18093C10086E08093C20080E8CC
:1004900095E090939B0580939A0580E091EEA0E013
:1004A000B0E080938E0590938F05A0939005B09354
:1004B000910508953C9A84EA8093BC0020E030E0E6
:1004C00002C02F5F3F4F8091BC0087FD03C02A35DB
:1004D0003105B9F73C9A8DE38093BB0084E88093A3
:1004E000BC0020E030E002C02F5F3F4F8091BC0095
:1004F00087FD03C02A353105B9F78091BC008F70A4
:10050000806C8093BC0020E030E002C02F5F3F4F42
:100510008091BC0087FD03C02A353105B9F7609191
:10052000BB0020E030E002C02F5F3F4F8091BC0055
:1005300087FD03C02A353105B9F78091BC008F7063
:10054000806C8093BC0020E030E002C02F5F3F4F02
:100550008091BC0087FD03C02A353105B9F7209191
:10056000BB0040E050E002C04F5F5F4F8091BC0095
:1005700087FD03C04A355105B9F7962F80E030E07A
:10058000822B932B90939705809396058091BC00C6
:100590008F70806C8093BC0020E030E002C02F5F41
:1005A0003F4F8091BC0087FD03C02A353105B9F764
:1005B0006091BB0020E030E002C02F5F3F4F809190
:1005C000BC0087FD03C02A353105B9F78091BC0016
:1005D0008F70806C8093BC0020E030E002C02F5F01
:1005E0003F4F8091BC0087FD03C02A353105B9F724
:1005F0002091BB0040E050E002C04F5F5F4F809110
:10060000BC0087FD03C04A355105B9F7962F80E03D
:1006100030E0822B932B90939505809394058091E5
:10062000BC008F70806C8093BC0020E030E002C082
:100630002F5F3F4F8091BC0087FD03C02A353105F5
:10064000B9F76091BB0020E030E002C02F5F3F4F60
:100650008091BC0087FD03C02A353105B9F7809130
:10066000BC008F70806C8093BC0020E030E002C042
:100670002F5F3F4F8091BC0087FD03C02A353105B5
:10068000B9F72091BB0040E050E002C04F5F5F4FE0
:100690008091BC0087FD03C04A355105B9F7962FFC
:1006A00080E030E0822B932B90939305809392050A
:1006B0003C9A8DE38093BB0084E88093BC0020E0EB
:1006C00030E002C02F5F3F4F8091BC0087FD03C028
:1006D0002A353105B9F784E98093BC0008953C9A26
:1006E00084EA8093BC0020E030E002C02F5F3F4FDF
:1006F0008091BC0087FD03C02A353105B9F73C9ACB
:100700008CE38093BB0084E88093BC0020E030E061
:1007100002C02F5F3F4F8091BC0087FD03C02A3588
:100720003105B9F73C9A82E08093BB0084E880935E
:10073000BC0020E030E002C02F5F3F4F8091BC0042
:1007400087FD03C02A353105B9F73C9A1092BB00EA
:1007500084E88093BC0020E030E002C02F5F3F4F70
:100760008091BC0087FD03C02A353105B9F784E9C3
:100770008093BC00089581E480937C0086EC809394
:100780007A0080917A0086FDFCCF809178002091DC
:10079000790030E023703070322F222790917C0056
:1007A000907F90937C00280F311DC901089582E449
:1007B00080937C0086EC80937A0080917A0086FD9D
:1007C000FCCF809178002091790030E02370307068
:1007D000322F222790917C00907F90937C00280FED
:1007E000311DC901089580E480937C0086EC8093DC
:1007F0007A0080917A0086FDFCCF8091780020916C
:10080000790030E023703070322F222710927A0066
:1008100090917C00907F90937C00280F311DC9013E
:1008200008953C9A84EA8093BC0020E030E002C046
:100830002F5F3F4F8091BC0087FD03C02A353105F3
:10084000B9F73C9A86EA8093BB0084E88093BC00A9
:1008500020E030E002C02F5F3F4F8091BC0087FD59
:1008600003C02A353105B9F73C9A82E38093BB0077
:1008700084E88093BC0020E030E002C02F5F3F4F4F
:100880008091BC0087FD03C02A353105B9F784E9A2
:100890008093BC003C9A84EA8093BC0020E030E066
:1008A00002C02F5F3F4F8091BC0087FD03C02A35F7
:1008B0003105B9F73C9A87EA8093BB0084E88093BE
:1008C000BC0020E030E002C02F5F3F4F8091BC00B1
:1008D00087FD03C02A353105B9F78091BC008F70C0
:1008E000806C8093BC0020E030E002C02F5F3F4F5F
:1008F0008091BC0087FD03C02A353105B9F72091EE
:10090000BB0040E050E002C04F5F5F4F8091BC00F1
:1009100087FD03C04A355105B9F78091BC008F703F
:1009200080688093BC0040E050E002C04F5F5F4FA2
:100930008091BC0087FD03C04A355105B9F780910D
:10094000BB0040E050E002C04F5F5F4F8091BC00B1
:1009500087FD03C04A355105B9F784E98093BC008F
:100960003C9A84EA8093BC0040E050E002C04F5FB4
:100970005F4F8091BC0087FD03C04A355105B9F730
:100980003C9A86EA8093BB0084E88093BC0040E0F8
:1009900050E002C04F5F5F4F8091BC0087FD03C0F5
:1009A0004A355105B9F73C9A83E38093BB0084E84C
:1009B0008093BC0040E050E002C04F5F5F4F8091E9
:1009C000BC0087FD03C04A355105B9F784E980931F
:1009D000BC003C9A84EA8093BC0040E050E002C036
:1009E0004F5F5F4F8091BC0087FD03C04A355105C2
:1009F000B9F73C9A87EA8093BB0084E88093BC00F7
:100A000040E050E002C04F5F5F4F8091BC0087FD27
:100A100003C04A355105B9F78091BC008F70806CD6
:100A20008093BC0040E050E002C04F5F5F4F809178
:100A3000BC0087FD03C04A355105B9F76091BB0082
:100A400040E050E002C04F5F5F4F8091BC0087FDE7
:100A500003C04A355105B9F78091BC008F7080689A
:100A60008093BC0040E050E002C04F5F5F4F809138
:100A7000BC0087FD03C04A355105B9F78091BB0022
:100A800040E050E002C04F5F5F4F8091BC0087FDA7
:100A900003C04A355105B9F784E98093BC00962F0D
:100AA00080E030E0282B392BC90108953C9A84EA74
:100AB0008093BC0020E030E002C02F5F3F4F809168
:100AC000BC0087FD03C02A353105B9F73C9A86EA98
:100AD0008093BB0084E88093BC0020E030E002C03B
:100AE0002F5F3F4F8091BC0087FD03C02A35310541
:100AF000B9F73C9A84E38093BB0084E88093BC0000
:100B000020E030E002C02F5F3F4F8091BC0087FDA6
:100B100003C02A353105B9F784E98093BC003C9ABB
:100B200084EA8093BC0020E030E002C02F5F3F4F9A
:100B30008091BC0087FD03C02A353105B9F73C9A86
:100B400087EA8093BB0084E88093BC0020E030E01B
:100B500002C02F5F3F4F8091BC0087FD03C02A3544
:100B60003105B9F78091BC008F70806C8093BC0018
:100B700020E030E002C02F5F3F4F8091BC0087FD36
:100B800003C02A353105B9F72091BB0040E050E0A1
:100B900002C04F5F5F4F8091BC0087FD03C04A35A4
:100BA0005105B9F78091BC008F7080688093BC00BC
:100BB00040E050E002C04F5F5F4F8091BC0087FD76
:100BC00003C04A355105B9F78091BB0040E050E0C1
:100BD00002C04F5F5F4F8091BC0087FD03C04A3564
:100BE0005105B9F784E98093BC003C9A84EA80936C
:100BF000BC0040E050E002C04F5F5F4F8091BC00FE
:100C000087FD03C04A355105B9F73C9A86EA8093BF
:100C1000BB0084E88093BC0040E050E002C04F5F1E
:100C20005F4F8091BC0087FD03C04A355105B9F77D
:100C30003C9A85E38093BB0084E88093BC0040E04D
:100C400050E002C04F5F5F4F8091BC0087FD03C042
:100C50004A355105B9F784E98093BC003C9A84EA8F
:100C60008093BC0040E050E002C04F5F5F4F809136
:100C7000BC0087FD03C04A355105B9F73C9A87EAA5
:100C80008093BB0084E88093BC0040E050E002C049
:100C90004F5F5F4F8091BC0087FD03C04A3551050F
:100CA000B9F78091BC008F70806C8093BC0040E0ED
:100CB00050E002C04F5F5F4F8091BC0087FD03C0D2
:100CC0004A355105B9F76091BB0040E050E002C0E1
:100CD0004F5F5F4F8091BC0087FD03C04A355105CF
:100CE000B9F78091BC008F7080688093BC0040E0B1
:100CF00050E002C04F5F5F4F8091BC0087FD03C092
:100D00004A355105B9F78091BB0040E050E002C080
:100D10004F5F5F4F8091BC0087FD03C04A3551058E
:100D2000B9F784E98093BC00962F80E030E0282B4F
:100D3000392BC90108953C9A84EA8093BC0020E0D5
:100D400030E002C02F5F3F4F8091BC0087FD03C0A1
:100D50002A353105B9F73C9A86EA8093BB0084E8CE
:100D60008093BC0020E030E002C02F5F3F4F8091B5
:100D7000BC0087FD03C02A353105B9F73C9A86E3EC
:100D80008093BB0084E88093BC0020E030E002C088
:100D90002F5F3F4F8091BC0087FD03C02A3531058E
:100DA000B9F784E98093BC003C9A84EA8093BC0044
:100DB00020E030E002C02F5F3F4F8091BC0087FDF4
:100DC00003C02A353105B9F73C9A87EA8093BB0006
:100DD00084E88093BC0020E030E002C02F5F3F4FEA
:100DE0008091BC0087FD03C02A353105B9F7809199
:100DF000BC008F70806C8093BC0020E030E002C0AB
:100E00002F5F3F4F8091BC0087FD03C02A3531051D
:100E1000B9F72091BB0040E050E002C04F5F5F4F48
:100E20008091BC0087FD03C04A355105B9F7809118
:100E3000BC008F7080688093BC0040E050E002C02E
:100E40004F5F5F4F8091BC0087FD03C04A3551055D
:100E5000B9F78091BB0040E050E002C04F5F5F4FA8
:100E60008091BC0087FD03C04A355105B9F784E97C
:100E70008093BC003C9A84EA8093BC0040E050E040
:100E800002C04F5F5F4F8091BC0087FD03C04A35B1
:100E90005105B9F73C9A86EA8093BB0084E88093B9
:100EA000BC0040E050E002C04F5F5F4F8091BC004B
:100EB00087FD03C04A355105B9F73C9A87E3809313
:100EC000BB0084E88093BC0040E050E002C04F5F6C
:100ED0005F4F8091BC0087FD03C04A355105B9F7CB
:100EE00084E98093BC003C9A84EA8093BC0040E093
:100EF00050E002C04F5F5F4F8091BC0087FD03C090
:100F00004A355105B9F73C9A87EA8093BB0084E8DB
:100F10008093BC0040E050E002C04F5F5F4F809183
:100F2000BC0087FD03C04A355105B9F78091BC006C
:100F30008F70806C8093BC0040E050E002C04F5F37
:100F40005F4F8091BC0087FD03C04A355105B9F75A
:100F50006091BB0040E050E002C04F5F5F4F809166
:100F6000BC0087FD03C04A355105B9F78091BC002C
:100F70008F7080688093BC0040E050E002C04F5FFB
:100F80005F4F8091BC0087FD03C04A355105B9F71A
:100F90008091BB0040E050E002C04F5F5F4F809106
:100FA000BC0087FD03C04A355105B9F784E9809339
:100FB000BC00962F80E030E0282B392BC901089522
:100FC000492F552747FD5A954093C5008093C4008B
:100FD00022E02093C00028E12093C10026E0209366
:100FE000C20020E835E030939B0520939A050895D0
:100FF0008091C00087FFFCCF8091C60008951F93A9
:10100000182F8A3019F48DE00E94FF078091C000EC
:1010100085FFFCCF1093C60080E090E01F910895FB
:10102000982F8091C00085FFFCCF9093C600089553
:101030000BC020E0000000000000000000000000E5
:101040002F5F2A35B9F70197009799F70895F99915
:10105000FECF92BD81BD60BDFA9AF99A0895F999C3
:10106000FECF92BD81BDF89A80B50895BC018091F4
:10107000B9008E7F8093B9008091B9008D7F8093F5
:10108000B90080ED97E00E940C14603130F0862F9B
:1010900090E0409795958795682F6093B8000895E4
:1010A00084E690E00E943608ECEBF0E080818460FA
:1010B0008083089580E684B980E187B982E08AB9A7
:1010C00080E388B90E9450080E94C1000E946F030B
:1010D0000E945A0108953C9A84EA8093BC000895C6
:1010E00084E98093BC00089520E030E002C02F5FC7
:1010F0003F4F8091BC0087FD03C02A353105B9F709
:1011000008953C9A8093BB0084E88093BC000895C6
:10111000882329F08091BC008F70806C04C080917E
:10112000BC008F7080688093BC0008958091BB00E4
:1011300008958091B900089581E480937C0086EC45
:1011400080937A0080917A0086FDFCCF40917800F0
:101150008091790090E083709070982F882720917B
:101160007C00207F20937C0000D000D020E031E084
:10117000EDB7FEB732832183840F911D948383835F
:101180000E94791182E480937C0086EC80937A003F
:101190000F900F900F900F9080917A0086FDFCCFFA
:1011A000409178008091790090E083709070982F42
:1011B000882720917C00207F20937C0000D000D0E5
:1011C00029E031E0EDB7FEB732832183840F911D12
:1011D000948383830E94791180E480937C0086EC61
:1011E00080937A000F900F900F900F9080917A006B
:1011F00086FDFCCF409178008091790090E083706B
:101200009070982F882710927A0020917C00207F80
:1012100020937C0000D000D022E131E0EDB7FEB792
:1012200032832183840F911D948383830E947911DB
:101230000F900F900F900F9008950F931F930E949F
:101240005A0200D000D00CE111E0EDB7FEB71283D6
:1012500001838091960590919705948383830E94E2
:101260007911EDB7FEB712830183809194059091B7
:101270009505948383830E94791180E291E0EDB714
:10128000FEB7928381838091920590919305948318
:1012900083830E9479110F900F900F900F901F91F0
:1012A0000F9108950E945A0200D000D083E291E08D
:1012B000EDB7FEB792838183809196059091970553
:1012C000948383830E9479118BE291E0EDB7FEB79E
:1012D0009283818380919405909195059483838373
:1012E0000E94791183E391E0EDB7FEB79283818389
:1012F0008091920590919305948383830E94791144
:101300000F900F900F900F90089500D08AE391E016
:10131000EDB7FEB7928381830E94791186E491E054
:10132000EDB7FEB7928381830E94791185EA91E03F
:10133000EDB7FEB7928381830E94791183E092E03A
:10134000EDB7FEB7928381830E9479118EE592E01A
:10135000EDB7FEB7928381830E9479118FEB92E003
:10136000EDB7FEB7928381830E94791189E093E003
:10137000EDB7FEB7928381830E94791187E893E0ED
:10138000EDB7FEB7928381830E94791183EC93E0DD
:10139000EDB7FEB7928381830E9479110F900F9071
:1013A00008950E94110400D000D023E231E0EDB78F
:1013B000FEB732832183948383830E9479110F9037
:1013C0000F900F900F900E94560500D000D02BE296
:1013D00031E0EDB7FEB732832183948383830E948B
:1013E00079110F900F900F900F900E949B0600D0E4
:1013F00000D02CE034E0EDB7FEB732832183948334
:1014000083830E9479110F900F900F900F90089591
:101410000F931F9384E290E00E94B4110E94110484
:1014200000D000D00CE111E0EDB7FEB712830183CC
:10143000948383830E9479110F900F900F900F90E7
:101440000E94560500D000D0EDB7FEB7128301838D
:10145000948383830E9479110F900F900F900F90C7
:101460000E949B0600D000D0EDB7FEB71283018327
:10147000948383830E94791181E480937C0086ECBD
:1014800080937A000F900F900F900F9080917A00C8
:1014900086FDFCCF409178008091790090E08370C8
:1014A0009070982F882720917C00207F20937C00CB
:1014B00000D000D02CE131E0EDB7FEB732832183BC
:1014C000840F911D948383830E94791182E4809319
:1014D0007C0086EC80937A000F900F900F900F9015
:1014E00080917A0086FDFCCF409178008091790050
:1014F00090E083709070982F882720917C00207F47
:1015000020937C0000D000D02CE131E0EDB7FEB795
:1015100032832183840F911D948383830E947911E8
:1015200080E480937C0086EC80937A000F900F908B
:101530000F900F9080917A0086FDFCCF409178004B
:101540008091790090E083709070982F8827109296
:101550007A0020917C00207F20937C0000D000D076
:1015600020E231E0EDB7FEB732832183840F911D75
:10157000948383830E9479110F900F900F900F90A6
:101580000E941D0900D085E194E0EDB7FEB792837B
:1015900081830E94791182EC91E00F900F900BC033
:1015A0000000000000000000000000002F5F2A354E
:1015B000B9F7019711F020E0F3CF1F910F91089533
:1015C0000E9450080E94C1000E946F0300D088E66C
:1015D00090E0EDB7FEB7928381830E948E118EE971
:1015E00090E0EDB7FEB7928381830E948E118DEB60
:1015F00090E0EDB7FEB7928381830E948E1189ED52
:1016000090E0EDB7FEB7928381830E948E118BEF3D
:1016100090E0EDB7FEB7928381830E948E118BE03C
:1016200091E0EDB7FEB7928381830E948E1100D0C6
:1016300000D089E194E0EDB7FEB792838183809179
:101640008E0590918F05A0919005B09191058383AF
:101650009483A583B6830E9479110F900F900F9009
:101660000F9081E291E0EDB7FEB7928381830E94F3
:101670008E118AE391E0EDB7FEB7928381830E94D9
:101680008E110F900F900E94711008951F933C9A35
:1016900084EA8093BC0020E030E002C02F5F3F4F1F
:1016A0008091BC0087FD03C02A353105B9F73C9A0B
:1016B0008DE38093BB0084E88093BC0020E030E0A1
:1016C00002C02F5F3F4F8091BC0087FD03C02A35C9
:1016D0003105B9F78091BC008F70806C8093BC009D
:1016E00020E030E002C02F5F3F4F8091BC0087FDBB
:1016F00003C02A353105B9F75091BB0020E030E036
:1017000002C02F5F3F4F8091BC0087FD03C02A3588
:101710003105B9F78091BC008F70806C8093BC005C
:1017200020E030E002C02F5F3F4F8091BC0087FD7A
:1017300003C02A353105B9F74091BB0020E030E005
:1017400002C02F5F3F4F8091BC0087FD03C02A3548
:101750003105B9F7952F80E0E42FF0E0E82BF92B65
:10176000F0939705E09396058091BC008F70806C94
:101770008093BC0020E030E002C02F5F3F4F80919B
:10178000BC0087FD03C02A353105B9F75091BB0075
:1017900020E030E002C02F5F3F4F8091BC0087FD0A
:1017A00003C02A353105B9F78091BC008F70806C79
:1017B0008093BC0020E030E002C02F5F3F4F80915B
:1017C000BC0087FD03C02A353105B9F74091BB0045
:1017D00020E030E002C02F5F3F4F8091BC0087FDCA
:1017E00003C02A353105B9F7952F80E0642F70E0EA
:1017F000682B792B70939505609394058091BC00BC
:101800008F70806C8093BC0020E030E002C02F5FBE
:101810003F4F8091BC0087FD03C02A353105B9F7E1
:101820005091BB0020E030E002C02F5F3F4F80911D
:10183000BC0087FD03C02A353105B9F78091BC0093
:101840008F70806C8093BC0020E030E002C02F5F7E
:101850003F4F8091BC0087FD03C02A353105B9F7A1
:101860004091BB0020E030E002C02F5F3F4F8091ED
:10187000BC0087FD03C02A353105B9F7952F80E0FC
:1018800050E0482B592B50939305409392053C9A76
:101890008DE38093BB0084E88093BC0020E030E0BF
:1018A00002C02F5F3F4F8091BC0087FD03C02A35E7
:1018B0003105B9F784E98093BC00E617F70729F4EE
:1018C000E417F50711F49FEF01C090E03C9A84EA19
:1018D0008093BC0020E030E002C02F5F3F4F80913A
:1018E000BC0087FD03C02A353105B9F73C9A86EA6A
:1018F0008093BB0084E88093BC0020E030E002C00D
:101900002F5F3F4F8091BC0087FD03C02A35310512
:10191000B9F73C9A1092BB0084E88093BC0020E0A9
:1019200030E002C02F5F3F4F8091BC0087FD03C0B5
:101930002A353105B9F784E98093BC003C9A84EAE2
:101940008093BC0020E030E002C02F5F3F4F8091C9
:10195000BC0087FD03C02A353105B9F73C9A87EAF8
:101960008093BB0084E88093BC0020E030E002C09C
:101970002F5F3F4F8091BC0087FD03C02A353105A2
:10198000B9F78091BC008F70806C8093BC0020E020
:1019900030E002C02F5F3F4F8091BC0087FD03C045
:1019A0002A353105B9F71091BB0020E030E002C0C4
:1019B0002F5F3F4F8091BC0087FD03C02A35310562
:1019C000B9F78091BC008F7080688093BC0020E0E4
:1019D00030E002C02F5F3F4F8091BC0087FD03C005
:1019E0002A353105B9F78091BB0020E030E002C014
:1019F0002F5F3F4F8091BC0087FD03C02A35310522
:101A0000B9F784E98093BC00992321F400D082E2E5
:101A100094E003C000D08EE294E0EDB7FEB792836D
:101A200081830E9479110F900F90153E21F400D010
:101A300089E394E003C000D086E494E0EDB7FEB7FC
:101A4000928381830E9479110F900F908091C00042
:101A500087FFFCCF0E94E00A1F9108951F9300D0DA
:101A600082E594E0EDB7FEB7928381830E947911FD
:101A70008CE694E0EDB7FEB7928381830E947911E2
:101A800087E794E0EDB7FEB7928381830E947911D6
:101A900082E894E0EDB7FEB7928381830E947911CA
:101AA0008EE894E0EDB7FEB7928381830E947911AE
:101AB0008AE994E0EDB7FEB7928381830E947911A1
:101AC0000F900F908091C00087FFFCCF1091C6004F
:101AD00060919A0570919B058AE090E00E944D11FB
:101AE00060919A0570919B058DE090E00E944D11E8
:101AF000113309F062C0F999FECF82E090E092BD07
:101B000081BD83E680BDFA9AF99AF999FECF84E007
:101B100090E092BD81BD10BCFA9AF99AF999FECF76
:101B200085E090E092BD81BD10BCFA9AF99AF999CE
:101B3000FECF86E090E092BD81BD10BCFA9AF99A82
:101B4000F999FECF87E090E092BD81BD10BCFA9A72
:101B5000F99AF999FECF83E090E092BD81BD84E0CF
:101B600080BDFA9AF99A00D086EA94E0EDB7FEB704
:101B7000928381830E94791182E390E00F900F900D
:101B80000BC00000000000000000000000002F5FFC
:101B90002A35B9F7019711F020E0F3CF1092C50074
:101BA0008FEC8093C40082E08093C00088E1809332
:101BB000C10086E08093C200FFCF123309F062C0FB
:101BC000F999FECF82E090E092BD81BD83E680BDB1
:101BD000FA9AF99AF999FECF83E090E092BD81BD1F
:101BE00010BCFA9AF99AF999FECF85E090E092BD7F
:101BF00081BD10BCFA9AF99AF999FECF86E090E07F
:101C000092BD81BD10BCFA9AF99AF999FECF87E08E
:101C100090E092BD81BD10BCFA9AF99AF999FECF75
:101C200084E090E092BD81BD89E080BDFA9AF99A86
:101C300000D081ED94E0EDB7FEB7928381830E94DE
:101C4000791182E390E00F900F900BC0000000002C
:101C500000000000000000002F5F2A35B9F701974F
:101C600011F020E0F3CF1092C50087E68093C40006
:101C700082E08093C00088E18093C10086E0809379
:101C8000C200FFCF133309F062C0F999FECF82E0A2
:101C900090E092BD81BD83E680BDFA9AF99AF999E8
:101CA000FECF83E090E092BD81BD10BCFA9AF99A14
:101CB000F999FECF84E090E092BD81BD10BCFA9A04
:101CC000F99AF999FECF86E090E092BD81BD10BCF3
:101CD000FA9AF99AF999FECF87E090E092BD81BD1A
:101CE00010BCFA9AF99AF999FECF85E090E092BD7E
:101CF00081BD83E180BDFA9AF99A00D08CEF94E01F
:101D0000EDB7FEB7928381830E94791182E390E060
:101D10000F900F900BC000000000000000000000BA
:101D200000002F5F2A35B9F7019711F020E0F3CFBB
:101D30001092C50083E38093C40082E08093C000CA
:101D400088E18093C10086E08093C200FFCF143306
:101D500009F062C0F999FECF82E090E092BD81BDAA
:101D600083E680BDFA9AF99AF999FECF83E090E074
:101D700092BD81BD10BCFA9AF99AF999FECF84E020
:101D800090E092BD81BD10BCFA9AF99AF999FECF04
:101D900085E090E092BD81BD10BCFA9AF99AF9995C
:101DA000FECF87E090E092BD81BD10BCFA9AF99A0F
:101DB000F999FECF86E090E092BD81BD86E280BDBC
:101DC000FA9AF99A00D088E295E0EDB7FEB79283CF
:101DD00081830E94791182E390E00F900F900BC0F5
:101DE0000000000000000000000000002F5F2A3506
:101DF000B9F7019711F020E0F3CF1092C50089E107
:101E00008093C40082E08093C00088E18093C10089
:101E100086E08093C200FFCF153309F062C0F999C4
:101E2000FECF82E090E092BD81BD83E680BDFA9A4C
:101E3000F99AF999FECF83E090E092BD81BD10BC84
:101E4000FA9AF99AF999FECF84E090E092BD81BDAB
:101E500010BCFA9AF99AF999FECF85E090E092BD0C
:101E600081BD10BCFA9AF99AF999FECF86E090E00C
:101E700092BD81BD10BCFA9AF99AF999FECF87E01C
:101E800090E092BD81BD89E380BDFA9AF99A00D0B5
:101E900084E595E0EDB7FEB7928381830E947911C6
:101EA00082E390E00F900F900BC000000000000054
:101EB0000000000000002F5F2A35B9F7019711F0EC
:101EC00020E0F3CF1092C50080E18093C40082E04F
:101ED0008093C00088E18093C10086E08093C200B7
:101EE000FFCF1153153008F4EDCD0E94E00AEACD82
:101EF0008F929F92AF92BF92CF92DF92EF92FF921A
:101F00000F931F93CF93DF93A1E0AA2EB12CCCE1C6
:101F1000D1E0F1E48F2E16ECE2E49E2E00E470E2B4
:101F2000C72E71E0D72E65E1E62E64E0F62EC3C021
:101F300084E290E00E94B4110E94110400D000D00D
:101F4000EDB7FEB7D283C183948383830E94791156
:101F50000F900F900F900F900E94560500D000D068
:101F6000EDB7FEB7D283C183948383830E94791136
:101F70000F900F900F900F900E949B0600D000D002
:101F8000EDB7FEB7D283C183948383830E94791116
:101F900080927C0010937A000F900F900F900F901A
:101FA00080917A0086FDFCCF8091780020917900A5
:101FB00030E023703070322F222790917C00907F88
:101FC00090937C0000D000D0EDB7FEB7D283C183E0
:101FD000280F311D348323830E94791190927C0055
:101FE00010937A000F900F900F900F9080917A00CD
:101FF00086FDFCCF809178002091790030E023703D
:102000003070322F222790917C00907F90937C003B
:1020100000D000D0EDB7FEB7D283C183280F311DA9
:10202000348323830E94791100937C0010937A00FB
:102030000F900F900F900F9080917A0086FDFCCF4B
:10204000809178002091790030E023703070322F39
:10205000222710927A0090917C00907F90937C00D0
:1020600000D000D0EDB7FEB7D282C182280F311D5B
:10207000348323830E9479110F900F900F900F905B
:102080000E941D0900D0EDB7FEB7F282E1820E94E6
:10209000791182EC91E00F900F900BC000000000CE
:1020A00000000000000000002F5F2A35B9F70197FB
:1020B00011F020E0F3CF8091C00087FF39CF8091ED
:1020C000C00087FFFCCF8091C6008A31A1F7F99943
:1020D000FECFB2BCA1BC10BCFA9AF99A0E94E00AE9
:1020E000EACF0F931F93CF93DF93F999FECF81E04F
:1020F00090E092BD81BDF89A80B5803309F47EC02E
:10210000C1E0D0E000E38091C00087FFFCCF1091D8
:10211000C60060919A0570919B058AE090E00E944C
:102120004D1160919A0570919B058DE090E00E94A1
:102130004D11113351F402C00E94D1098091C000A9
:1021400087FFFACF0E94E00A26C01233C1F412C002
:102150000E94520986E292E00BC0000000000000DD
:102160000000000000002F5F2A35B9F7019711F039
:1021700020E0F3CF8091C00087FFEACF36C0133351
:1021800051F402C00E949C088091C00087FFFACFE2
:102190000E94E00A11C0143351F402C00E94080AE0
:1021A0008091C00087FFFACF0E94E00A0AC0153371
:1021B00019F40E942E0D19C0103119F40E94460B1B
:1021C000A2CF1A3151F4F999FECFD2BDC1BD00BDE5
:1021D000FA9AF99A0E94780F96CF1F3349F40E9419
:1021E00085098091C00087FFFCCF0E94E00A8BCF59
:1021F0001F3F09F088CF0E94711085CF0E94780F91
:10220000DF91CF911F910F910895CF93DF930E949B
:102210005A08C1E0D0E02D9A88EE93E00BC0000090
:10222000000000000000000000002F5F2A35B9F711
:10223000019711F020E0F3CF2D9888EE93E00BC0CA
:102240000000000000000000000000002F5F2A35A1
:10225000B9F7019711F020E0F3CF2D9A88EE93E0C3
:102260000BC00000000000000000000000002F5F15
:102270002A35B9F7019711F020E0F3CF2D98F9999D
:10228000FECFD2BDC1BDF89A80B5803319F40E944B
:102290007110C1CF0E94E00ABECF0F931F93CF935E
:1022A000DF938C01EB018B8181FF1BC082FF0DC08E
:1022B0002E813F818C819D812817390764F4E88144
:1022C000F9810193F983E88306C0E885F985802FB9
:1022D0000995892B31F48E819F8101969F838E838E
:1022E00002C00FEF1FEFC801DF91CF911F910F9137
:1022F0000895A0E0B0E0EFE7F1E10C943014FE01A6
:1023000035966191719180919A0590919B05AF01ED
:102310000E94BB112096E2E00C944C14A0E0B0E0C7
:10232000E4E9F1E10C943014FE013596619171916C
:10233000A0919A05B0919B0513968C911397886094
:1023400013968C9380919A0590919B05AF010E9402
:10235000BB11E0919A05F0919B052381277F238390
:102360002096E2E00C944C1460919A0570919B05C4
:102370000E944D110895ABE0B0E0E1ECF1E10C9466
:1023800020143C012B015A01FC0117821682838123
:1023900081FD03C06FEF7FEFC6C19AE0892E1E0159
:1023A0000894211C311CF3012381F20123FD859146
:1023B00023FF81912F01882309F4B2C1853239F4BA
:1023C00023FD859123FF81912F01853229F490E02F
:1023D000B3010E944D11E7CF982FFF24EE249924DA
:1023E000FFE1FF15D0F09B3269F09C3228F4903267
:1023F00059F0933291F40EC09D3249F0903369F454
:1024000041E024C052E0F52A84E0F82A28C098E090
:10241000F92A25C0E0E1FE2A22C0F7FC29C0892F55
:1024200080538A3070F4F6FE05C0989C902C1124DD
:10243000980E15C0E89CE02C1124E80EF0E2FF2A6B
:102440000EC09E3229F4F6FC6BC140E4F42A07C0AA
:102450009C3619F450E8F52A02C0983649F4F20186
:1024600023FD959123FF91912F01992309F0B8CF76
:10247000892F8554833018F08052833038F444E03B
:1024800050E0A40EB51E5FE359830FC0933631F0C0
:10249000933779F0933509F056C020C0F50180815B
:1024A000898342E050E0A40EB51E610101E010E016
:1024B00012C0F501C080D180F6FC03C06FEF7FEF42
:1024C00002C0692D70E042E050E0A40EB51EC601C6
:1024D0000E94A3138C015FE7F52214C0F501C080B0
:1024E000D180F6FC03C06FEF7FEF02C0692D70E072
:1024F00042E050E0A40EB51EC6010E9498138C0164
:1025000050E8F52AF3FE07C01AC080E290E0B3015C
:102510000E944D11EA948E2D90E008171907A8F338
:102520000EC0F601F7FC8591F7FE81916F0190E0F6
:10253000B3010E944D11E110EA94015010400115C1
:10254000110579F7EAC0943611F0993669F5F7FE6E
:1025500008C0F501208131814281538184E090E0FF
:102560000AC0F501808191819C01442737FD409587
:10257000542F82E090E0A80EB91E9FE6F92257FF83
:1025800009C050954095309521953F4F4F4F5F4F73
:10259000E0E8FE2ACA01B901A1012AE030E00E9468
:1025A000AE13D82ED21840C0953729F41F2D1F7EA8
:1025B0002AE030E01DC01F2D197F9F3661F0903753
:1025C00020F4983509F0ACC00FC0903739F0983737
:1025D00009F0A6C004C028E030E00AC0106114FD74
:1025E000146020E130E004C014FD166020E132E008
:1025F00017FF08C0F501608171818281938144E0F9
:1026000050E008C0F50180819181BC0180E090E03C
:1026100042E050E0A40EB51EA1010E94AE13D82ED8
:10262000D2188FE7F82EF122F6FE0BC05EEFF522EE
:10263000D91438F4F4FE07C0F2FC05C08FEEF8227E
:1026400002C01D2D01C0192DF4FE0DC0FE01ED0DBF
:10265000F11D8081803319F499EEF92208C01F5FC3
:10266000F2FE05C003C08F2D867809F01F5F0F2D85
:10267000F3FC14C0F0FE0FC01E1510F09D2C0BC013
:102680009D2C9E0C911A1E2D06C080E290E0B30195
:102690000E944D111F5F1E15C0F304C01E1510F4DB
:1026A000E11A01C0EE2404FF0FC080E390E0B30103
:1026B0000E944D1102FF1DC001FD03C088E790E09C
:1026C0000EC088E590E00BC0802F867891F001FF66
:1026D00002C08BE201C080E2F7FC8DE290E0B30122
:1026E0000E944D1106C080E390E0B3010E944D119D
:1026F0009A94D914C0F3DA94F101ED0DF11D8081A3
:1027000090E0B3010E944D11DD20A9F706C080E2E0
:1027100090E0B3010E944D11EA94EE20C1F743CE40
:10272000F30166817781CB012B96E2E10C943C1496
:10273000FC010590615070400110D8F7809590958C
:102740008E0F9F1F0895FC01615070400190011091
:10275000D8F7809590958E0F9F1F0895FA01AA27AC
:10276000283051F1203181F1E8946F936E7F6E5FD4
:102770007F4F8F4F9F4FAF4FB1E03ED0B4E03CD082
:10278000670F781F891F9A1FA11D680F791F8A1F65
:10279000911DA11D6A0F711D811D911DA11D20D0CC
:1027A00009F468943F912AE0269F11243019305D86
:1027B0003193DEF6CF010895462F4770405D419377
:1027C000B3E00FD0C9F7F6CF462F4F70405D4A33C4
:1027D00018F0495D31FD4052419302D0A9F7EACF8C
:1027E000B4E0A6959795879577956795BA95C9F7BB
:1027F00000976105710508959B01AC010A2E0694AE
:102800005795479537952795BA95C9F7620F731F66
:10281000841F951FA01D0895AA1BBB1B51E107C073
:10282000AA1FBB1FA617B70710F0A61BB70B881F60
:10283000991F5A95A9F780959095BC01CD010895EF
:102840002F923F924F925F926F927F928F929F92C0
:10285000AF92BF92CF92DF92EF92FF920F931F93AE
:10286000CF93DF93CDB7DEB7CA1BDB0B0FB6F8945F
:10287000DEBF0FBECDBF09942A88398848885F849F
:102880006E847D848C849B84AA84B984C884DF8010
:10289000EE80FD800C811B81AA81B981CE0FD11DF4
:1028A0000FB6F894DEBF0FBECDBFED010895F894CA
:0228B000FFCF58
:1028B200783D202534642C2000793D202534642C79
:1028C20020007A3D20253464200A0D0025642C0066
:1028D200256400783D2534642C2000793D2534643C
:1028E2002C20007A3D25640A0D0048454C50204DAD
:1028F200454E550A0D005B315D2073656E642061A3
:1029020073636969203120746F20676574206F7565
:10291200747075742066726F6D20746865206163CF
:1029220063656C65726F6D6574657228782C792C9D
:102932007A292E2048697420616E79206B6579208E
:10294200746F2072657475726E20746F206D656E7F
:10295200752E0A0D005B325D2073656E6420617313
:10296200636969203220746F20676574206F757403
:102972007075742066726F6D20746865206D616772
:102982006E65746F6D6574657228782C792C7A295E
:102992002E2048697420616E79206B657920746FEE
:1029A2002072657475726E20746F206D656E752E5F
:1029B2000A0D005B335D2073656E64206173636989
:1029C20069203320746F20676574206F7574707589
:1029D200742066726F6D20746865206779726F73F8
:1029E200636F706528782C792C7A292E20486974B7
:1029F20020616E79206B657920746F207265747521
:102A0200726E20746F206D656E752E0A0D005B3438
:102A12005D2073656E64206173636969203420747C
:102A22006F206765742074686520726177206F7506
:102A3200747075742066726F6D20616C6C206F66A5
:102A4200207468652073656E736F72732E204869F7
:102A52007420616E79206B657920746F20726574C1
:102A620075726E20746F206D656E752E0A0D002AC8
:102A72002A2A2052617720666F726D6174202724A2
:102A8200616363656C782C616363656C792C616347
:102A920063656C7A2C6779726F782C6779726F79BB
:102AA2002C6779726F7A2C6D6167782C6D6167790A
:102AB2002C6D61677A230A0D005B355D2073656EAC
:102AC20064206173636969203520746F20676574BF
:102AD2002074686520352063686F696365732066BA
:102AE2006F7220626175642072617465732E205268
:102AF20065736574207465726D696E616C20616EB8
:102B02006420626F6172642061667465722063681A
:102B1200616E67652E2048697420616E79206B654D
:102B22007920746F2072657475726E20746F206DD7
:102B3200656E752E0A0D005B6374726C2D705D20DC
:102B42006374726C2D70207465737473207468657D
:102B520020616363656C65726F6D65746572206177
:102B62006E64206D61676E65746F6D657465722E3B
:102B72000A0D005B6374726C2D7A5D206374726C53
:102B82002B7A20617420616E7974696D6520776992
:102B92006C6C20746F67676C65206265747765651D
:102BA2006E20726177206F757470757420616E6427
:102BB20020746865206D656E750A0D007A3D2534B6
:102BC20064200A0D00230A0D00256C646270730AEA
:102BD2000D00484D433A20474F4F440A0D00484DDF
:102BE200433A204241440A0D004144584C3A20479E
:102BF2004F4F440A0D004144584C3A204241440A86
:102C02000D000A0D4261756420526174652053659E
:102C12006C656374204D656E750A0D005B315D2035
:102C2200343830300A0D005B325D20393630300ADC
:102C32000D005B335D2031393230300A0D005B34D8
:102C42005D2033383430300A0D005B355D20353776
:102C52003630300A0D00216368616E67652062615B
:102C62007564207261746520746F2034383030626C
:102C720070732C20726573657420626F61726421B7
:102C820000216368616E676520626175642072610C
:102C9200746520746F20393630306270732C207264
:102CA2006573657420626F617264210021636861DB
:102CB2006E67652062617564207261746520746F4D
:102CC2002031393230306270732C20726573657432
:102CD20020626F6172642100216368616E67652002
:102CE20062617564207261746520746F20333834B8
:102CF20030306270732C20726573657420626F616C
:102D020072642100216368616E6765206261756487
:102D1200207261746520746F2035373630306270EE
:102D2200732C20726573657420626F617264210076
:0E2D32000000000200000000FF07000000008B
:00000001FF
